:100000006F00B02900000000240500002605000054
:1000100000000000000000000000000000000000E0
:1000200000000000000000000000000000000000D0
:10003000980A000000000000980A0000000000007C
:10004000980A0000980A0000980A0000980A000028
:10005000980A0000980A0000980A0000980A000018
:10006000980A0000980A0000980A0000980A000008
:10007000980A0000980A0000980A0000980A0000F8
:10008000980A0000980A0000980A0000980A0000E8
:10009000980A0000980A00002A09000000000000E9
:1000A000511126C022C206C4828282441244A24058
:1000B000310182802A86014593F6150091C232955E
:1000C00085810606F5F9828000000000634E050276
:1000D00063C305042E86AA857D5515C285466378BF
:1000E000B6006356C00006068606E36CB6FE014500
:1000F00063E4C500918D558D85820582F5FA828075
:100100008682C93F2E8582823305A04063D70500D1
:10011000B305B040C1B7B305B0408682653F330533
:10012000A0408282868263C70500634905005D376F
:100130002E858282B305B040E35B05FE3305A04007
:10014000513F3305B04082820000EFF27FF571111C
:100150002AC0EF00206C024513650508EF00A05986
:100160000145EF004059EF00A05EEF00605D0D45D6
:10017000EF009056EF00405A0145EF00C0570D4583
:10018000EF009055EF0040592AC0EF00605D024536
:10019000110121BFEFF2DFF02A9671112A849374C6
:1001A000F60F631594000145110101B722852EC099
:1001B000693F824505041374F40F88A18505D5B7FE
:1001C000EFF21FEE130141FD8965514693850554F9
:1001D0002808EF10F00A2C0019463545653F888441
:1001E0001C84948522055D8D42054185239CA18058
:1001F0001C85A2061886DD8EC206C186239DD1808D
:100200009C8636C2A207D98FC207C187239EF18080
:1002100003C761813EC07C100A073E978324C7FE56
:10022000EF10C072372600008325465513840181E4
:10023000EF10600AA685EF10000A3727000083251B
:100240008755EF104009EF10606A92460AA0368584
:10025000EF10C06F3726000083254655EF10A0072A
:10026000A685EF1040073727000083258755EF103C
:100270008006EF10A06782472AA03E85EF10006D30
:100280003726000083254655EF10E004A685EF10C1
:1002900080043727000083258755EF10C003EF1037
:1002A000E064AA854AA00840C205C1811301C102C9
:1002B000EDBBEFF2FFDE61112EC02AC2EF008055C8
:1002C000124515290D45EF00304182452E85252127
:1002D0000D45EF00704069212101C1BBEFF25FDCE9
:1002E0008D451D45F9370545EF00B0421545EF0036
:1002F000504281451945753F1545EF00904175B352
:10030000EFF21FDA2A841D4589351375050FB36591
:10031000850093F5F50F1D45693F41BBEFF25FD8AE
:100320001374F50F0D45238B8180D93F130500020F
:10033000293D12041374040793757500C18D1305CC
:100340000002853F9DB3EFF2BFD52A840D454D3F96
:100350002145E53B9375F40F2145A13FB9B3EFF279
:100360003FD4AD3F0D45693F6145C5331307400A92
:1003700081476319E500094555373D45E93705458E
:10038000413785473E8515B3EFF29FD1C93F01ED57
:10039000372500001305855BDD2037240000130599
:1003A000C45CF128EDBF11B3EFF29FCF1301C1FD83
:1003B000D14702C0014481443EC819359317050155
:1003C000C1873EC2935705413EC493970501C1873B
:1003D0003EC6924732470545BE94A247C204C18437
:1003E0003E948247420441843E9793170701C18798
:1003F0003EC0EF001032C247FD1793F7F70FCDFF55
:10040000B72700001385C7559D2837250000130521
:10041000C5596D20D1452685553942054185D920DC
:10042000B72400001385445A992837250000130586
:10043000855A6920D14522855139420541855D2083
:100440001385445A2D28372500001305055BBD2070
:100450000245D145A5394205418569201385445A95
:100460003928B72700001385C7551128A2472C86C5
:10047000139507013C82130141025D8D3DB1EFF2FE
:100480003FC22A84830704008DCBB7440140938781
:1004900004803E8593050008EF003020B7470140F7
:1004A000938707807DD505048305F4FF13850480B9
:1004B000C205C181EF00F01DF1B7C5BE1301C1F542
:1004C0002EC932CBAA851009480006C736CD3ACFCF
:1004D0003ED132C0EF10E06A48005537BA401301F0
:1004E000410A8280EFF2DFBBA9452A84C536931505
:1004F0000501C18593972500AE978607B307F440A1
:10050000C207C18313960701418663570600B307EC
:10051000F040139607014186372500001305055F5B
:10052000713F61B601A001A0EFF29FB7B7270000AD
:1005300083A5476471112A84EF00F0599357140082
:100540003764375F1304F49D1D8CAA852AC0228569
:10055000EF007058A285EF001058B7240000AA855C
:1005600003A58464EF102000A285EF00D056024757
:100570002A84BA85EF003056A285EF00D055AA85AF
:1005800003A58464EF00307EA285EF00D054B72726
:100590000000AA8503A5C764EF001023110131B63E
:1005A000EFF21FB01357050142054111AE87418597
:1005B0003EC03AC237240000EF10403983258455ED
:1005C000EF009020EF108032124793140501C18490
:1005D000131507014185EF10603783258455EF001F
:1005E000B01EEF10A0308247131705014187139505
:1005F000070141853AC2EF10603583258455EF002D
:10060000B01CEF10A02E93170501C187A685268583
:100610003EC04D341247AA84BA853A85613C824770
:10062000AA94BE853E8579342695EF102032ED3DA3
:10063000B727000083A5875FEF00F07283258455FC
:10064000EF007049EF10802A42054185635605008E
:100650003305A04042054185EF10402F41016FF066
:10066000DFA4EFF2FFA3611105458123C126EF004E
:10067000700313052003EF00D009716513050520F1
:10068000EF00D00CB707002083A507013725000035
:100690001305C55F25355121AA85372500001305AF
:1006A000C560293D372500001305C561C93BD12030
:1006B0009D2A1965130505DC052437240000E9315E
:1006C0000545EF001005CD316880418168816C825D
:1006D00092450245F135AA8413050463C533268586
:1006E000EF10C02042054185F53B3725000013057A
:1006F000455A7133F1B7EFF2BF9AAA8537350140F9
:10070000F523894537350140112565DD89453735A4
:10071000014011256FF07F99EFF29F98854537359D
:100720000140ED23014411C937350140D123137431
:10073000F50F854537350140F92B22856FF0FF967F
:10074000EFF21F96894537350140F1236FF0FF9591
:10075000EFF21F95854537350140752B6FF0FF94FB
:10076000EFF21F94054689453715014015296FF0B2
:10077000DF93EFF2FF92056501118545410502C047
:1007800002C202C402C602C802CA02CC231E010071
:10079000D12989478D447C808A85C147371501401E
:1007A0003EC426C241266144930700028A8537155C
:1007B00001407C8022C426C2B526930700087C80B5
:1007C0008A859147371501403EC4A92E930700043E
:1007D0008A85371501407C8022C426C2A126854522
:1007E00037350140012BB70704013EC6B7070200A9
:1007F0003EC8B707000285076C00373501403ECA86
:1008000022CC7929854537350140E121913F0561A9
:100810006FF0BF89EFF2DF88014689453715014047
:1008200041266FF09F88EFF2BF8711654111854522
:100830001305050202C202C402C62D2105658545C5
:1008400041050D218545114531290D449147C1448C
:100850004C00371501407C823EC026C622C4D924F4
:1008600021474C0037150140788226C622C45D2CF2
:100870004C0037150140648226C622C46524824795
:1008800026C6B71401404C00138504407C8222C464
:10089000512C094778824C0013078004138504808B
:1008A0003AC622C441248247130780044C001385B2
:1008B00004807C823AC622C4B524A38101822381AC
:1008C0000182A3800182238F0180A38F0180238076
:1008D000018241016FF06FFDEFF28FFC51112A840C
:1008E00085450545792E85478A85370500403EC0F8
:1008F0006082231301002304010025219305F00FDA
:100900003705004045210546854537050040AD299E
:10091000B7E700E01307000423A2E7108545370579
:100920000040B92131016FF04FF88545370500408F
:10093000AD2109C5854537050040AD21938741822A
:100940009843050798C373002030EFF26FF5371412
:1009500002401C403707FFF8414593E717001CC0D1
:100960005C40F98F5CC01C403707F7FE7D17F98F9C
:100970001CC01C403707FCFF7D17F98F1CC05C4072
:1009800041777D17F98F5CC0B7079F001CC40D2409
:100990001C4C93E707021CCCB717014003A7074084
:1009A000938607401377F7F023A0E74003A707409B
:1009B0001367070823A0E74089479CCAB7F7FF1FC2
:1009C00003C5477D9307F00F6304F5007D89CD22B1
:1009D000B72702409843C176FD16719B98C3984390
:1009E0001367170098C3B7170240D843D8C3D8433A
:1009F000758FD8C3D843B7060001D8C39843558F25
:100A000098C3984393166700E3DD06FED843B716F4
:100A10000240719BD8C3D84313672700D8C321472E
:100A2000DC42B18BE39EE7FE6FF02FE8EFF24FE779
:100A3000371702405C43370400209146B18B130402
:100A400004016385D700A1466382D704B7376E01DE
:100A5000938707601CC0B7160240DC4208409183B0
:100A600013F7F700B707002093870700BA978C2386
:100A7000DC4293F5F50F93F707083357B50081E78C
:100A8000EFF04FE52A8718C06FF02FE25C43B7778D
:100A9000DC02938707C07DBF01A0970100209381EE
:100AA00061E0138101F617250000130565DA97F55B
:100AB000FF1F938525551386818063FAC500832225
:100AC000050023A0550011059105E3EAC5FE138535
:100AD0008180938541836377B5002320050011054C
:100AE000E36DB5FEB7220000938202887390023056
:100AF0008D427390428097F2FFFF9382A25093E25F
:100B0000320073905230EFF05FE49702000093825E
:100B100082B57390123473002030B7F7FF1F03A51E
:100B2000477C8280944593F7060193F2F60081C7D3
:100B3000DC41B3E2F20083D3050093F7F30FA5C3C2
:100B400003230500611122C226C0814713048002DD
:100B50009304800405473316F70033F7C30063128C
:100B6000E602939527003D473317B7001347F7FF79
:100B700033736700B395B20033E36500639D86006D
:100B800050C985072147E397E7FC124423206500FD
:100B9000824421018280E39696FE10C9DDB78280EF
:100BA00019C20CC982804CC9828023A4A182828090
:100BB000371702401C430E0593F777F05D8D08C38D
:100BC0008280EFF2EFCD371702405C4391462A84D2
:100BD000B18B6385D700A1466380D708B7376E0114
:100BE000938707601CC0B7160240DC42918313F75D
:100BF000F700B707002093878702BA978C23DC425F
:100C0000184093F5F50F93F707083355B70081E7C0
:100C10003A85EFF02FCC48C008C448C4B71702404B
:100C2000DC438D46AD83FD8B13D737008A07F18BEC
:100C3000D98F13F6370113F7370063F4C600138713
:100C400047FFB707002093874701BA978C23EFF03F
:100C50006FC808C86FF06FC55C43B777DC02938735
:100C600007C049B799C5371702401C4F5D8D08CFA3
:100C70008280B7170240984F1345F5FF798D88CFD2
:100C8000828099C5371702405C4F5D8D48CF8280C6
:100C9000B7170240D84F1345F5FF798DC8CF828032
:100CA0001A218D6793870704B6217D8F9E21D58FEA
:100CB000D621D58FF621D58F9625D58FB625D58F00
:100CC000D625D58FF625D58FD98F1EA19E291EA991
:100CD00082801E2189C593E707041EA18280C20776
:100CE000C18393F7F7FBC207C183C5BF4EA58280BE
:100CF0004A2582805E2189C593E747005EA18280F4
:100D0000C207C183ED9BC207C183CDBF0A256D8D8C
:100D10003335A000828093C5F5FFC205C1810EA5C1
:100D200082801E2137370140130707C0C207C183E5
:100D30006306E500370700406316E500BA2193F724
:100D4000F7F8D98FFA2193F7F7CFC207C183D98F6C
:100D50001EA1DE215EB59E211EB5B73701409387E7
:100D600007C06314F5009C251EB985475EA98280E3
:100D70001E2189C593E717001EA18280C207C18387
:100D8000F99BC207C183CDBF5E2501C6DD8D4EA58F
:100D9000828093C5F5FFFD8DDDBF0A296D8D33354A
:100DA000A000828093C5F5FFC205C1810EA9828093
:100DB000EFF20FAF1629F577FD17F58FF621DA253B
:100DC0002111D58F1EA95625FD779387379FF58F63
:100DD000D6212A842EC0D58F9625D58FB625D58FBE
:100DE0005EA55E29C207C18393F7F7CF5D8F5AA92D
:100DF0004800C13BB7470140938707808245631293
:100E0000F406C2475A24139517003E9542070E0573
:100E100041873E958C41635807048605EFF08FAB00
:100E2000930540062AC0EFF0EFAA824793144500CD
:100E3000930540063E85EFF0AFAC5E24C207C18744
:100E400063D507020E059305400613052503EFF051
:100E50006FA81D89C98CC204C18006A461016FF00E
:100E6000CFA4B24745B78A0555BF12059305400682
:100E700013052503EFF00FA63D89E9BF91C55E2557
:100E80000967D98F5EA582805A25F977FD17F98FFA
:100E9000D5BF93F5F51F4EA182800A216D8D3335A4
:100EA000A0008280EFF2CF9FB707002003A50701C3
:100EB000B7157A0093850520EFF0CFA11375F50FD4
:100EC0002387A18293175500898F8A073E950E05C7
:100ED0002396A1826FF06F9DEFF28F9C37F400E0B4
:100EE0005C40AA85F99B5CC003C5E182EFF08F9C52
:100EF00008C8232404001C4093E717001CC0B7F760
:100F000000E0D843058B75DF9843799B98C36FF059
:100F1000CF99EFF2EF9837F400E05C40AA85F99B97
:100F20005CC003D5C182EFF0EF9808C82324040009
:100F30001C4093E717001CC0B7F700E0D843058BAF
:100F400075DF9843799B98C36FF02F96EFF24F951A
:100F50002A84116511118545130505022133930774
:100F600000027C80371501408D473EC28A85E147EB
:100F7000130505403EC4EFF0FFBA22C637440140D6
:100F8000B70708006C00130504803ECA02C8231C82
:100F90000100393D854513050480CD3571016FF0A1
:100FA000CF9037070020130787031C4393864183A4
:100FB0003E956369D500938601E663E5A60008C304
:100FC0003E858280FD57EDBF1301C1FD935675012B
:100FD00026CC131695009354F50106D022CE93F635
:100FE000F60F2582A682638B06109307F00F638CA1
:100FF000F6100E06B70700045D8E938616F80144BE
:10100000814393D775011393950093F7F70F13530B
:101010009300FD81E5C31307F00F6386E702938712
:1010200017F80E03370700049D8E3363E3008147F2
:101030005D8C171500001305E5610A042A94004031
:10104000AD8C22950285938616F06314030C8947B4
:101050005D8C171500001305E5630A042A94032329
:101060000400AD8C1A95028581449305F00FB707F3
:101070004000139597008250724493977501258123
:10108000FE045D8D458DE24413014102828093058B
:10109000F00F8147F9BF1A86AE82BE838947638607
:1010A000F3228D47E382F3FC85476386F30C938537
:1010B000F60793F412006358B0189377760099C737
:1010C0009377F60011456383A70011069317460036
:1010D00063D80700B70700F8FD177D8E93850608D3
:1010E0009307E00FE3C5B7FA93176600A58393F55E
:1010F000F50F41B763190304854799BF15E2114401
:1011000081468543FDBD01EA21449306F00F8943E2
:10111000CDBD8D4731BF31449306F00F8D43D5B51A
:1011200032852EC432C026C2EF00B00E02469307AD
:10113000B5FF9306A0F83316F600898E014481436B
:101140009242A2457DBD1A8536CA16C832C61EC453
:101150002EC21AC0EF00F00BD24602439307B5FF30
:10116000AA963313F3009386660781479245A243FC
:101170003246C24275BD93F4120081458147D5BD08
:10118000C16713175300FD17F98F3ACA3EC21354B3
:101190000701637D660E3285A28536C632C4EFE054
:1011A0007FF392452AC0EFE0FFF02246B246AA87BD
:1011B0003283FD160146A2851A8536C83EC632C462
:1011C000EFE01FF42246B2474205518DC246637FCD
:1011D000F500524782453A951386F5FF6362E50EA6
:1011E0006370F50E1386E5FF32C03A95B307F540FC
:1011F0003E85A28536C83EC6EFE0DFED92452AC4A3
:10120000EFE05FEBB2472AC2A2853E85EFE05FEFD9
:10121000124642052243C246637CC50052479307EB
:10122000F3FF3A95636CE508637AC50879133A953C
:1012300082473306C5403336C000C207B3E76700B4
:101240005D8EA682ADB505433303B34091C56D45B0
:1012500081458147E34F65E09386E609B316D600E2
:10126000B35766003336D000D18F93F6770099C616
:1012700093F6F70011466383C60091071397570052
:10128000634207049A07A5838145E5B3135316000B
:101290001A85A28536C832C61AC4EFE0BFE392456C
:1012A0002AC0EFE03FE13246AA87C2467E0641826D
:1012B000224311B7AE82BE830146CDB33E838DBFBC
:1012C00032C02DB7854581476DB393F41200930565
:1012D000F00F814779BB011122CC1354750126CA46
:1012E00006CE931495001374F40FA5809356F50160
:1012F0004DCC9307F00F630CF40CB70700048E0479
:10130000DD8C130414F88147014613D5750113973A
:1013100095001375F50F2583FD814DC51303F00F5F
:10132000630D65020E07130515F8370300043367D4
:1013300067002A9481431305140033C3B6002AC002
:101340003D459A826362F510171500001305853834
:101350008A07AA979C433E9502851304F40F61EB1C
:1013600093E727008943C1BF01431307F00FB70775
:101370004000F2406244A6075E07A5831315F301FF
:10138000D98FD2445D8D05618280AE82BA841E867B
:1013900089476306F60A8D47E308F6FC85471683FE
:1013A000631EF61A01478147E9B7B5E013D5750109
:1013B000139795001375F50F914701440546258352
:1013C000FD8129FD19EB93E717008543ADB79DE833
:1013D000A1471304F00F09460DBF3A8532C83EC637
:1013E0002EC436C23AC0352502471303B5FF098C17
:1013F000331767001304A4F881439246A245B2470D
:10140000424615BFB1471304F00F0D46FDBD2685BA
:101410002EC236C0FD2B9307B5FF1304A0F8B3947A
:10142000F400098C8147014682469245F9BD93E755
:1014300037008D4309B78947B682E31EF6F4168359
:101440001307F00F814735B7C167FD17B3F3F400F9
:10145000F98FC18041831E85BE85EFE0BFC5AA829A
:10146000BA851E85EFE01FC5AA83BE852685EFE0FD
:101470007FC4AA87BA852685EFE0DFC313D70201B0
:10148000BE93BA9363F4F300C1673E95C167FD173D
:10149000B3F4F300C204B3F2F200A6929394620094
:1014A00093D30301B334900093D2A201AA93B3E281
:1014B000540093946300B3E454009397440063D7BB
:1014C0000700024493D714008588DD8C1307F407C6
:1014D000635FE00293F7740099C793F7F4009146B5
:1014E0006383D70091049397440063D80700B7073C
:1014F00000F8FD17FD8C130704089307E00F63CB7A
:10150000E70493976400A5831377F70F9DB585478C
:10151000B386E74011C76D4601478147E34BD6E4E8
:101520001304E40933948400B3D7D400B3348000A7
:10153000C58F13F7770019C713F7F70091466303B8
:10154000D700910713975700634C07009A07A583AC
:10155000014705B51307F00F814721BD0244BDB710
:101560000547814739B5B7068000FD163111B3F73D
:10157000A6001357750113D675017D811377F70FF8
:10158000ED8E22C626C41376F60F06C89303F00F1D
:101590003EC22AC03A8493943700FD81939236006C
:1015A0003303C7406303761093C51500630EB5106F
:1015B0006354600C631106106388021E7D13B387A9
:1015C0005440630703029307F00F630BF716ED47D0
:1015D00063CA672893070002B3876740B397F20096
:1015E00033D36200B337F000B367F300B387F4403E
:1015F000139757006354071AB7040004FD14E58FCE
:101600003E853EC2392192476D15B397A7006341CD
:10161000851C018D050593020002B382A240B3929E
:101620005700B3325000B3D7A700B3E757000144C7
:1016300013F7770019C713F7F70091466303D70034
:10164000910713975700635F071482460504130739
:10165000F00F13F516006309E4169A07A5831377B4
:10166000F40FC2403244A6075E07A5837E055D8F56
:10167000A244598D510182806315030A1306170095
:101680001376E60F631106166313072263800420A6
:10169000E38902FCB38754409396570063D2062235
:1016A000B387924001442EC061B7E38F02EE630D11
:1016B000B50AE35360FC9307F00F6303F708B7071D
:1016C0000004B3E2F20021B76350600A51C29307ED
:1016D000F00F6307F706B7070004B3E2F200ED4727
:1016E00063CC671C93070002B3876740B397F2008F
:1016F00033D36200B337F000B367F300A6971397B4
:101700005700635D070805041307F00F630EE40A32
:10171000B706007E13D71700FD16858B758FD98FFE
:1017200001BFB307E6406316071063880414FD1772
:10173000638E07181307F00F6314E6102EC036C22D
:101740009247C1C301451307F00FB707400011BF0F
:10175000638C02047D13B3875400E30203FA9307FA
:10176000F00FE31EF7F6E9BF631B0308130417002D
:101770001376E40F6311061263150710638D0414CA
:10178000E38102EEB3875400139757000144635777
:101790000700370700FC7D17F98F054413F7770022
:1017A000E31B07E88D833EC29307F00FE30AF4F8CA
:1017B000924782461377F40FA607A58313F5160008
:1017C0004DB5824713F517001307F00F814751BD40
:1017D000B70200FCFD12B3F7570013F77700098C2E
:1017E000E31B07E4C1B7B387544013975700634C1A
:1017F000070AE39707E00145014781479DB5B30715
:10180000E6403DC31307F00FE30BE6F23707000491
:10181000D98C6D476346F70C130700021D8F339771
:10182000E400B3D7F4003337E000D98F96973284C1
:10183000F9B51307F00FE303E6F037070004D98C7E
:101840006D47634DF706130700021D8F3397E400C1
:10185000B3D7F4003337E000D98FB387F240328436
:101860002EC079B3854759B3ADC8FD17A5CF13076F
:10187000F00FE310E6FA36C2E1B536C232842EC06C
:1018800025B7E38E04EAE38D02EA6DBD638D0202A3
:101890002E85B687F9B39307F00FE307F4F2B38709
:1018A00054008583E5BDB38792402EC091BBE1FC17
:1018B000E38A02E82EC061B5854789B5854771BFC7
:1018C0000144E39D07EC0145814761BBB38792402A
:1018D00032842EC031BBB68769B336C23284E9B5D3
:1018E0008547A9B7B3875400328411BD37068000FD
:1018F000935775011307F6FF93F7F70F9305E0076A
:10190000698F9356F50163FCF5009305D00963FADE
:10191000F500370500801345F5FF369582800145B7
:10192000828093055009518F63CDF500130660093D
:10193000B307F640B357F7003305F040F5F23E85A4
:1019400082809387A7F6B317F700FDB7511106C43D
:1019500022C226C00DCD9357F54133C4A7001D8C7C
:10196000AA8422857D209307E0093387A740930747
:101970006009FD8063CCE702A1469377F70F63D53A
:10198000A60061153314A4002604258021A08144FB
:1019900081470144260413559400A2401244DE07F7
:1019A000FE045D8D458D824431018280930790094C
:1019B00063DDE7009307B5019546B317F400898E00
:1019C000B356D4003334F000558C954763D6A70046
:1019D0009307B5FF3314F400B70600FCFD169377A8
:1019E00074003376D40085C39377F4009145638CFB
:1019F000B70011069317560063D707009307F00945
:101A0000758E3387A7401314660025809377F70FF0
:101A100051B7C167637CF5029307F00F130700020B
:101A200063EBA700971700009387C7CEAA97882378
:101A30003305A7408280218197170000938787CDC7
:101A4000AA97882361473305A7408280B707000122
:101A5000636DF5006181971700009387A7CBAA9764
:101A6000882321473305A7408280418197170000D2
:101A7000938747CAAA97882341473305A7408280A6
:101A8000B3C7A5008D8B3307C50081E78D4763E79A
:101A9000C702AA87637EE50A942185078505A38F7F
:101AA000D7FEE3EBE7FE8280942185078505A38FAF
:101AB000D7FEE3EBE7FE0244110182809376350006
:101AC000AA8789CA942185078505A38FD7FE93F637
:101AD0003700C5BF9376C7FF138606FE63F5C706BA
:101AE000711122C0C04903A3050083A38500C0CBA8
:101AF000804D23A0670003A3450080CFC04D23A2E3
:101B0000670083A2C50003A3050193854502C0CFEA
:101B100003A4C5FF23A4770023A6570023A86700CA
:101B20009387470223AE87FEE3EEC7FAE3F3D7F8C5
:101B300090419107910523AEC7FECDBF904191071B
:101B4000910523AEC7FEE3EBD7FEE3E7E7F482801F
:101B50008280B70700801301C1F893C7F7FF3ECA20
:101B60003EC4C1772EC02EC8938787208A8586D829
:101B70003EC63122824723800700C6501301410729
:101B8000828097E7FF1F9387E751B2862E86AA854A
:101B90008843C1B703A38500111126C806CC22CA09
:101BA00032C2AE8463E16608D2251377064835CB8E
:101BB000AA82C84880408C49131715002A971355EC
:101BC000F701B307B4402A97138516003EC013549B
:101BD00017403E956373A4002A841376064036C6E8
:101BE00025C61685A28516C4EF00207FA242B24604
:101BF000314735C902468C4836C62AC45135D224ED
:101C00002243B2461376F6B713660608D2A482477B
:101C100023A86400C0C83E931D8C23A0640080C428
:101C2000368363F366003683924588401A861AC06D
:101C3000652D9844024301453307674098C4984096
:101C40003A9323A064003DA01685228616C4EF00B7
:101C500010062A83A242B2465DF98C48168516C04A
:101C6000F9258242314723A0E200DA247D5513672B
:101C70000704DAA4E2405244C24471018280DA25AA
:101C8000130181F722C1A6DE9307F10106C32AC220
:101C90002EC013770708B28413F487FF15CB984939
:101CA00005EB9305000436C60D2F8247B24688C364
:101CB00088CB19E91247B1477D551CC39A400A44A5
:101CC000F654130181088280824713070004D8CBA1
:101CD0001307000218BC13070003232A040038ACC2
:101CE00036CA268713065002142399C26392C60A85
:101CF0003303974063010302824512459A86268684
:101D00003AC81AC6413DFD56630ED51A54483243AF
:101D100042479A9654C814236386061A9304170000
:101D20007D57232004002326040058C023240400E8
:101D3000A3010404232C04048C201546171500006D
:101D4000130545AD712313871400144021E513F6E4
:101D5000060109C613060002A301C40413F6860097
:101D600009C61306B002A301C4048C201306A00206
:101D7000638FC502544426878145254510231303EC
:101D80001700130606FD6377C50695C954C405A858
:101D9000050799BF171600001306C6A73306C540EE
:101DA00005453315C500C98E14C0BA8471B75246B3
:101DB0009305460010422ECA6347060250C4102302
:101DC0009306E0026311D60610339306A002631E49
:101DD000D602D246090713864600944232CA63C42B
:101DE000060254C089A03306C04093E6260050C4C2
:101DF00014C0F1B71397260036970607B306C7003D
:101E000085451A87A5BFFD56E9BF050723220400B3
:101E1000814581462545102313031700130606FD4F
:101E20006376C506DDFD0C230D461715000013056E
:101E3000E59E3AC67129324711CD97160000938668
:101E4000E69D158D93060004B396A600084005078D
:101E5000558D08C00C231946171500001305459C25
:101E6000930417000CACAD213DC517E7FFFF130726
:101E7000671905EB1440524793F606108DC21107FF
:101E80003ACA5848A2473E9758C8A1BD13972600A2
:101E900036970607B306C70085451A87ADBF2107E9
:101EA000C5B7024612455808970600009386C6CE6D
:101EB000A28597000000E70000002AC4A2477D57D2
:101EC000E391E7FC82477D55DA2713770704E31790
:101ED00007DE4848E5B30246124558089706000059
:101EE000938686CBA285052AC9BF011126CA3283F3
:101EF000B6849045944922CC06CE2A84AE8763D31B
:101F0000C600B2862320D30003C6370401C6850667
:101F10002320D300944393F6060291C68326030040
:101F200089062320D30083A207009383970193F2AD
:101F3000620063830206904383C637041376060269
:101F4000B336D00041EA13863704A68522851AC429
:101F50003EC23AC00297FD566308D5069247224317
:101F60001145944303260300CC47998A0143024755
:101F70006397A6003383C54063530300014394472E
:101F8000904B6354D600918E36938142E9076312D9
:101F9000530601451DA88502D44703260300918EF0
:101FA000E3DBD2F885461E86A68522851AC83EC682
:101FB00016C41EC23AC00297FD5602479243A2427F
:101FC000B2474243E319D5FC7D55F2406244D24406
:101FD00005618280B385D70013050003A381A504A2
:101FE00083C55704138616003E968906A301B604DE
:101FF00099BF85463E86A685228516C61AC43EC26E
:102000003AC00297FD56E301D5FCB2422243924703
:1020100085020247ADBF130141FD22D206D426D06E
:1020200032C2902D36C42AC0930690062E84938225
:102030003504630DD60263E2C60693068005630F7E
:10204000D61863EDC6006307062293063004630CBE
:10205000D60A930424042301C4047DA89306300601
:102060006303D60A93064006E315D6FE14400843E0
:1020700013F606089305450055C214410CC363D8F6
:1020800006001307D002B306D040A301E4041706EC
:10209000000013066679294755A893060007630BCD
:1020A000D61663E5C6029306E0066302D61A9306C7
:1020B000F006E310D6FA0C40144313F30508138519
:1020C00046006305030608C39442B5A09306500773
:1020D000E303D6FE930680076302D6149306300707
:1020E000E319D6F614431386460010C38442D04148
:1020F00081452685F12A19C1058D48C0584018C868
:10210000A30104045DA81443930424041386460029
:1021100010C398422301E4040547D5B713F606041B
:1021200014410CC329DEC206C18691BF93F5050494
:1021300008C3D9D996221307F0066302E6101706E2
:1021400000001306666E2947A30104044C400CC42A
:1021500063C5050008406D9908C099E296849DC941
:102160009684BA85368516CC32CA3AC836C6EFD0C0
:102170003FF952464247B24632950C21FD1436854E
:102180008CA0BA85EFD01FF5B24642475246E242D4
:1021900063FDE60AA146631ED7001840058B11CBEC
:1021A000544018486347D70013070003A38FE4FE89
:1021B000FD14B382924023285400224792460245E0
:1021C0007008A285EFF07FD27D576319E50A7D552F
:1021D000A250125482541301C1028280A382C5040A
:1021E00017060000130646640C40084313F3050865
:1021F00014411105630D030208C313F7150001C74D
:1022000093E505020CC04147A1F20C4093F5F5FDA2
:102210000CC01DBF944193E6060294C1930680074B
:10222000A302D404170600001306466175BF13F31A
:10223000050408C3E30303FCC206C1827DBF170681
:1022400000001306665E214701B7AA8619BF9041B8
:102250001443CC4913730608138546006306030034
:1022600008C398420CC339A008C3137606049842E9
:1022700075DA0EA323280400968481B7144892458A
:102280000245A247268682977D57E302E5F418406F
:10229000098B1DEB72474844E35CE5F23A850DBFBC
:1022A00092450245A24785461A863AC81AC68297C1
:1022B000FD56E30ED5F042473243050754447246BB
:1022C000918EE34FD7FCF9B7014713039401FDB793
:1022D00093F5F50F2A966314C500014582801C21F1
:1022E000E38EB7FE0505C5BF63F1A504B386C5003F
:1022F000637DD5029345F6FF8147FD176393F50093
:1023000082803387F600034307003387C7002A978C
:1023100023006700DDB73387F50014233307F5008A
:10232000850714A3E319F6FE82808147E5BFCDC57A
:1023300083A7C5FF511122C206C426C01384C5FF5E
:1023400063D307003E94AA84C52297E7FF1F9387B3
:10235000E7D59C4389EF2322040097E7FF1F23A7BB
:1023600087D41244A2402685824431017DAA637E2F
:10237000F40014403307D4006396E7009843DC432D
:10238000369718C05CC0D1BFBA87D84319C3E37D64
:10239000E4FE94433386D700631F86001040B29654
:1023A00094C33386D700E31EC7FA10435843B2964E
:1023B00094C3D8C37DB76375C400B1479CC055B7FB
:1023C0001040B306C4006316D70014435843B296B6
:1023D00014C058C0C0C371B78280411126C2938413
:1023E0003500F19806C622C4A104B14763F5F40490
:1023F000B14463E4B4042AC0052A138781801443DE
:102400008247368439E01387C180184301EB3E854B
:1024100081453EC0ED2023A6A18082473E85A6854A
:102420003EC0F1287D5782476314E506314798C3C3
:102430003E85E52829A0E3DE04FAB1471CC1014529
:10244000B24022449244410182801840058F634E7D
:1024500007022D466376E60018C03A9404C031A006
:1024600058406392860223A4E1803E857D281305AF
:10247000B400130744006199B307E540F1D33E94DB
:10248000098F18C075BFD8C2CDB7A28640409DBF86
:10249000130435007198E30385FCB305A4403E8521
:1024A0003EC0B1287D578247E31AE5FA41B799E16A
:1024B000B28525B7311106C822C626C409EA853D72
:1024C0008147C2403244A2443E85510182802E841D
:1024D00032C0AA84A1280246A287E374C5FEB28551
:1024E000268532C2DD3DAA8769DD1246A2852AC053
:1024F000EFF00FD9A28526851D3D8247D9B751112E
:1025000022C22A842E8523A8018206C4EFE07FA977
:10251000FD576317F500938701839C4391C31CC04B
:10252000A2401244310182808280828083A7C5FF4D
:102530001385C7FF63D50700AA959C413E9582800D
:1025400079E99C4179E91C4279E99C4279E91C438B
:10255000355EEB4200000038000020417C2D2D2D1F
:102560002D2D2D2D2D2D2D2D2D2D2D2D2D2D2D2D9B
:102570002D2D2D2D2D2D2D2D2D2D2D2D2D2D2D2D8B
:102580002D2D2D2D2D2D2D2D2D2D2D2D2D2D2D2D7B
:102590002D2D2D2D2D2D317C0D0A0000583A2009AE
:1025A00000000000090D0A00593A2009000000004F
:1025B0005A3A200900000000696E76616C69642057
:1025C00063686970206964200D0A0000426C6F63C3
:1025D0006B656420627920696E6974206D633334A1
:1025E0007839206F626C6A6563740D0A0000000020
:1025F0007C25642E25647C00CDCC1C4153797374FA
:10260000656D436C6B3A25640D0A00004368697080
:1026100049443A253038780D0A00000043616C6C5B
:1026200020436F6E66696773496E6974200D0A00F6
:10263000746F74616C4F7665726C6F61643A2009D7
:10264000000000000000003F0000C03F0000803F8D
:1026500030EBFFFF3EEAFFFF2AEBFFFF46EAFFFFFA
:102660002AEBFFFF18EAFFFF2AEBFFFF46EAFFFF16
:102670003EEAFFFF3EEAFFFF18EAFFFF46EAFFFFE0
:102680004CEAFFFF4CEAFFFF4CEAFFFF18EAFFFFAE
:10269000FEE9FFFFFEE9FFFFEAEAFFFF24ECFFFF90
:1026A000EAEAFFFFD8E9FFFFEAEAFFFF24ECFFFFB9
:1026B000FEE9FFFFFEE9FFFFD8E9FFFF24ECFFFF83
:1026C0000CEAFFFF0CEAFFFF0CEAFFFFD8E9FFFF6F
:1026D00078EDFFFFBCECFFFFBCECFFFFBAECFFFFA7
:1026E000C0ECFFFFC0ECFFFF98ECFFFFBAECFFFF70
:1026F000C0ECFFFF98ECFFFFC0ECFFFFBAECFFFF60
:1027000066EDFFFF66EDFFFF66EDFFFF98ECFFFF54
:102710000001020203030303040404040404040488
:102720000505050505050505050505050505050559
:102730000606060606060606060606060606060639
:102740000606060606060606060606060606060629
:102750000707070707070707070707070707070709
:1027600007070707070707070707070707070707F9
:1027700007070707070707070707070707070707E9
:1027800007070707070707070707070707070707D9
:1027900008080808080808080808080808080808B9
:1027A00008080808080808080808080808080808A9
:1027B0000808080808080808080808080808080899
:1027C0000808080808080808080808080808080889
:1027D0000808080808080808080808080808080879
:1027E0000808080808080808080808080808080869
:1027F0000808080808080808080808080808080859
:102800000808080808080808080808080808080848
:10281000232D302B20000000686C4C006566674556
:10282000464700003031323334353637383941428B
:1028300043444546000000003031323334353637EA
:0C284000383961626364656600000000C6
:10284C000102030405060708010203040506070834
:10285C00006CDC020204060804080C100810182096
:10286C001020304020406080010203040506070858
:10287C000102030405060708D40000200000000034
:10288C00000000000000000000000000000000003C
:10289C00000000000000000000000000000000002C
:1028AC00000000000000000000000000000000001C
:1028BC00000000000000000000000000000000000C
:1028CC0000000000000000000000000000000000FC
:1028DC0000000000000000000000000000000000EC
:0828EC003C0000200000000088
:00000001FF
